{
  "_format": "hh-sol-artifact-1",
  "contractName": "TaskManager",
  "sourceName": "src/backend/contracts/TaskManager.sol",
  "abi": [
    {
      "inputs": [],
      "stateMutability": "nonpayable",
      "type": "constructor"
    },
    {
      "anonymous": false,
      "inputs": [
        {
          "indexed": false,
          "internalType": "uint256",
          "name": "id",
          "type": "uint256"
        },
        {
          "indexed": false,
          "internalType": "address",
          "name": "assignedTo",
          "type": "address"
        }
      ],
      "name": "ChangeAssignation",
      "type": "event"
    },
    {
      "anonymous": false,
      "inputs": [
        {
          "indexed": false,
          "internalType": "uint256",
          "name": "id",
          "type": "uint256"
        },
        {
          "indexed": false,
          "internalType": "uint256",
          "name": "priority",
          "type": "uint256"
        }
      ],
      "name": "ChangePriority",
      "type": "event"
    },
    {
      "anonymous": false,
      "inputs": [
        {
          "indexed": false,
          "internalType": "uint256",
          "name": "id",
          "type": "uint256"
        },
        {
          "indexed": false,
          "internalType": "uint256",
          "name": "status",
          "type": "uint256"
        }
      ],
      "name": "ChangeStatus",
      "type": "event"
    },
    {
      "anonymous": false,
      "inputs": [
        {
          "indexed": false,
          "internalType": "uint256",
          "name": "id",
          "type": "uint256"
        },
        {
          "indexed": false,
          "internalType": "uint256",
          "name": "completedAt",
          "type": "uint256"
        }
      ],
      "name": "TaskCompleted",
      "type": "event"
    },
    {
      "anonymous": false,
      "inputs": [
        {
          "indexed": false,
          "internalType": "uint256",
          "name": "id",
          "type": "uint256"
        },
        {
          "indexed": false,
          "internalType": "string",
          "name": "title",
          "type": "string"
        },
        {
          "indexed": false,
          "internalType": "string",
          "name": "description",
          "type": "string"
        },
        {
          "indexed": false,
          "internalType": "uint256",
          "name": "status",
          "type": "uint256"
        },
        {
          "indexed": false,
          "internalType": "uint256",
          "name": "priority",
          "type": "uint256"
        },
        {
          "indexed": false,
          "internalType": "address",
          "name": "assignedTo",
          "type": "address"
        },
        {
          "indexed": false,
          "internalType": "address",
          "name": "createdBy",
          "type": "address"
        },
        {
          "indexed": false,
          "internalType": "address",
          "name": "updatedBy",
          "type": "address"
        },
        {
          "indexed": false,
          "internalType": "uint256",
          "name": "createdAt",
          "type": "uint256"
        },
        {
          "indexed": false,
          "internalType": "uint256",
          "name": "updatedAt",
          "type": "uint256"
        },
        {
          "indexed": false,
          "internalType": "uint256",
          "name": "dueBy",
          "type": "uint256"
        },
        {
          "indexed": false,
          "internalType": "uint256",
          "name": "completedAt",
          "type": "uint256"
        }
      ],
      "name": "TaskCreated",
      "type": "event"
    },
    {
      "anonymous": false,
      "inputs": [
        {
          "indexed": false,
          "internalType": "uint256",
          "name": "id",
          "type": "uint256"
        },
        {
          "indexed": false,
          "internalType": "address",
          "name": "updatedBy",
          "type": "address"
        }
      ],
      "name": "UpdatedBy",
      "type": "event"
    },
    {
      "inputs": [
        {
          "internalType": "uint256",
          "name": "_id",
          "type": "uint256"
        },
        {
          "internalType": "uint256",
          "name": "_status",
          "type": "uint256"
        }
      ],
      "name": "changePriority",
      "outputs": [],
      "stateMutability": "nonpayable",
      "type": "function"
    },
    {
      "inputs": [
        {
          "internalType": "uint256",
          "name": "_id",
          "type": "uint256"
        },
        {
          "internalType": "uint256",
          "name": "_status",
          "type": "uint256"
        }
      ],
      "name": "changeStatus",
      "outputs": [],
      "stateMutability": "nonpayable",
      "type": "function"
    },
    {
      "inputs": [
        {
          "internalType": "string",
          "name": "_title",
          "type": "string"
        },
        {
          "internalType": "string",
          "name": "_description",
          "type": "string"
        }
      ],
      "name": "createTask",
      "outputs": [],
      "stateMutability": "nonpayable",
      "type": "function"
    },
    {
      "inputs": [],
      "name": "ownerAccount",
      "outputs": [
        {
          "internalType": "address payable",
          "name": "",
          "type": "address"
        }
      ],
      "stateMutability": "view",
      "type": "function"
    },
    {
      "inputs": [],
      "name": "taskCount",
      "outputs": [
        {
          "internalType": "uint256",
          "name": "",
          "type": "uint256"
        }
      ],
      "stateMutability": "view",
      "type": "function"
    },
    {
      "inputs": [
        {
          "internalType": "uint256",
          "name": "",
          "type": "uint256"
        }
      ],
      "name": "tasks",
      "outputs": [
        {
          "internalType": "uint256",
          "name": "id",
          "type": "uint256"
        },
        {
          "internalType": "string",
          "name": "title",
          "type": "string"
        },
        {
          "internalType": "string",
          "name": "description",
          "type": "string"
        },
        {
          "internalType": "uint256",
          "name": "status",
          "type": "uint256"
        },
        {
          "internalType": "uint256",
          "name": "priority",
          "type": "uint256"
        },
        {
          "internalType": "address",
          "name": "assignedTo",
          "type": "address"
        },
        {
          "internalType": "address",
          "name": "createdBy",
          "type": "address"
        },
        {
          "internalType": "address",
          "name": "updatedBy",
          "type": "address"
        },
        {
          "internalType": "uint256",
          "name": "createdAt",
          "type": "uint256"
        },
        {
          "internalType": "uint256",
          "name": "updatedAt",
          "type": "uint256"
        },
        {
          "internalType": "uint256",
          "name": "dueBy",
          "type": "uint256"
        },
        {
          "internalType": "uint256",
          "name": "completedAt",
          "type": "uint256"
        }
      ],
      "stateMutability": "view",
      "type": "function"
    },
    {
      "inputs": [
        {
          "internalType": "uint256",
          "name": "_id",
          "type": "uint256"
        }
      ],
      "name": "toggleCompleted",
      "outputs": [],
      "stateMutability": "nonpayable",
      "type": "function"
    }
  ],
  "bytecode": "0x60a06040526000805534801561001457600080fd5b503373ffffffffffffffffffffffffffffffffffffffff1660808173ffffffffffffffffffffffffffffffffffffffff1681525050608051611b4861006460003960006113450152611b486000f3fe608060405234801561001057600080fd5b506004361061007d5760003560e01c806391203cc31161005b57806391203cc3146100f5578063ac497e9414610111578063b6cb58a51461012d578063ea47cb241461014b5761007d565b8063292a458514610082578063455f50241461009e5780638d977672146100ba575b600080fd5b61009c60048036038101906100979190611564565b610169565b005b6100b860048036038101906100b39190611612565b6103df565b005b6100d460048036038101906100cf9190611612565b610865565b6040516100ec9c9b9a99989796959493929190611717565b60405180910390f35b61010f600480360381019061010a91906117df565b610a35565b005b61012b600480360381019061012691906117df565b610eb9565b005b61013561133d565b604051610142919061181f565b60405180910390f35b610153611343565b604051610160919061185b565b60405180910390f35b60008081548092919061017b906118a5565b9190505550604051806101800160405280600054815260200183815260200182815260200160008152602001600081526020013373ffffffffffffffffffffffffffffffffffffffff1681526020013373ffffffffffffffffffffffffffffffffffffffff1681526020013373ffffffffffffffffffffffffffffffffffffffff1681526020014281526020014281526020016000815260200160008152506001600080548152602001908152602001600020600082015181600001556020820151816001019080519060200190610254929190611367565b506040820151816002019080519060200190610271929190611367565b50606082015181600301556080820151816004015560a08201518160050160006101000a81548173ffffffffffffffffffffffffffffffffffffffff021916908373ffffffffffffffffffffffffffffffffffffffff16021790555060c08201518160060160006101000a81548173ffffffffffffffffffffffffffffffffffffffff021916908373ffffffffffffffffffffffffffffffffffffffff16021790555060e08201518160070160006101000a81548173ffffffffffffffffffffffffffffffffffffffff021916908373ffffffffffffffffffffffffffffffffffffffff1602179055506101008201518160080155610120820151816009015561014082015181600a015561016082015181600b01559050507f966369fa3967a9adee1d13e1dfd82bfa577648627c3a450da8b4653b0425531e600054838360008033333342426000806040516103d39c9b9a99989796959493929190611933565b60405180910390a15050565b600060016000838152602001908152602001600020604051806101800160405290816000820154815260200160018201805461041a90611a2a565b80601f016020809104026020016040519081016040528092919081815260200182805461044690611a2a565b80156104935780601f1061046857610100808354040283529160200191610493565b820191906000526020600020905b81548152906001019060200180831161047657829003601f168201915b505050505081526020016002820180546104ac90611a2a565b80601f01602080910402602001604051908101604052809291908181526020018280546104d890611a2a565b80156105255780601f106104fa57610100808354040283529160200191610525565b820191906000526020600020905b81548152906001019060200180831161050857829003601f168201915b5050505050815260200160038201548152602001600482015481526020016005820160009054906101000a900473ffffffffffffffffffffffffffffffffffffffff1673ffffffffffffffffffffffffffffffffffffffff1673ffffffffffffffffffffffffffffffffffffffff1681526020016006820160009054906101000a900473ffffffffffffffffffffffffffffffffffffffff1673ffffffffffffffffffffffffffffffffffffffff1673ffffffffffffffffffffffffffffffffffffffff1681526020016007820160009054906101000a900473ffffffffffffffffffffffffffffffffffffffff1673ffffffffffffffffffffffffffffffffffffffff1673ffffffffffffffffffffffffffffffffffffffff1681526020016008820154815260200160098201548152602001600a8201548152602001600b820154815250509050428161016001818152505080600160008481526020019081526020016000206000820151816000015560208201518160010190805190602001906106b3929190611367565b5060408201518160020190805190602001906106d0929190611367565b50606082015181600301556080820151816004015560a08201518160050160006101000a81548173ffffffffffffffffffffffffffffffffffffffff021916908373ffffffffffffffffffffffffffffffffffffffff16021790555060c08201518160060160006101000a81548173ffffffffffffffffffffffffffffffffffffffff021916908373ffffffffffffffffffffffffffffffffffffffff16021790555060e08201518160070160006101000a81548173ffffffffffffffffffffffffffffffffffffffff021916908373ffffffffffffffffffffffffffffffffffffffff1602179055506101008201518160080155610120820151816009015561014082015181600a015561016082015181600b01559050507ff9c405f91e34dcd1dc136cf6992ada4a8c24a2803e0fab7546364c64dac7ba2b8282610160015160405161081f929190611a5c565b60405180910390a17f6910eb6f790b6fbe2c5b9a560007e00453970a04e77b391ab40cb743c50646c1826009604051610859929190611ac0565b60405180910390a15050565b600160205280600052604060002060009150905080600001549080600101805461088e90611a2a565b80601f01602080910402602001604051908101604052809291908181526020018280546108ba90611a2a565b80156109075780601f106108dc57610100808354040283529160200191610907565b820191906000526020600020905b8154815290600101906020018083116108ea57829003601f168201915b50505050509080600201805461091c90611a2a565b80601f016020809104026020016040519081016040528092919081815260200182805461094890611a2a565b80156109955780601f1061096a57610100808354040283529160200191610995565b820191906000526020600020905b81548152906001019060200180831161097857829003601f168201915b5050505050908060030154908060040154908060050160009054906101000a900473ffffffffffffffffffffffffffffffffffffffff16908060060160009054906101000a900473ffffffffffffffffffffffffffffffffffffffff16908060070160009054906101000a900473ffffffffffffffffffffffffffffffffffffffff169080600801549080600901549080600a01549080600b015490508c565b6000600160008481526020019081526020016000206040518061018001604052908160008201548152602001600182018054610a7090611a2a565b80601f0160208091040260200160405190810160405280929190818152602001828054610a9c90611a2a565b8015610ae95780601f10610abe57610100808354040283529160200191610ae9565b820191906000526020600020905b815481529060010190602001808311610acc57829003601f168201915b50505050508152602001600282018054610b0290611a2a565b80601f0160208091040260200160405190810160405280929190818152602001828054610b2e90611a2a565b8015610b7b5780601f10610b5057610100808354040283529160200191610b7b565b820191906000526020600020905b815481529060010190602001808311610b5e57829003601f168201915b5050505050815260200160038201548152602001600482015481526020016005820160009054906101000a900473ffffffffffffffffffffffffffffffffffffffff1673ffffffffffffffffffffffffffffffffffffffff1673ffffffffffffffffffffffffffffffffffffffff1681526020016006820160009054906101000a900473ffffffffffffffffffffffffffffffffffffffff1673ffffffffffffffffffffffffffffffffffffffff1673ffffffffffffffffffffffffffffffffffffffff1681526020016007820160009054906101000a900473ffffffffffffffffffffffffffffffffffffffff1673ffffffffffffffffffffffffffffffffffffffff1673ffffffffffffffffffffffffffffffffffffffff1681526020016008820154815260200160098201548152602001600a8201548152602001600b820154815250509050818160600181815250508060016000858152602001908152602001600020600082015181600001556020820151816001019080519060200190610d08929190611367565b506040820151816002019080519060200190610d25929190611367565b50606082015181600301556080820151816004015560a08201518160050160006101000a81548173ffffffffffffffffffffffffffffffffffffffff021916908373ffffffffffffffffffffffffffffffffffffffff16021790555060c08201518160060160006101000a81548173ffffffffffffffffffffffffffffffffffffffff021916908373ffffffffffffffffffffffffffffffffffffffff16021790555060e08201518160070160006101000a81548173ffffffffffffffffffffffffffffffffffffffff021916908373ffffffffffffffffffffffffffffffffffffffff1602179055506101008201518160080155610120820151816009015561014082015181600a015561016082015181600b01559050507f6910eb6f790b6fbe2c5b9a560007e00453970a04e77b391ab40cb743c50646c1838260600151604051610e73929190611a5c565b60405180910390a17f7379975efc8f27e526e8c986518fe504c4659ce93a1877e3a2db2c821f471c0a8333604051610eac929190611ae9565b60405180910390a1505050565b6000600160008481526020019081526020016000206040518061018001604052908160008201548152602001600182018054610ef490611a2a565b80601f0160208091040260200160405190810160405280929190818152602001828054610f2090611a2a565b8015610f6d5780601f10610f4257610100808354040283529160200191610f6d565b820191906000526020600020905b815481529060010190602001808311610f5057829003601f168201915b50505050508152602001600282018054610f8690611a2a565b80601f0160208091040260200160405190810160405280929190818152602001828054610fb290611a2a565b8015610fff5780601f10610fd457610100808354040283529160200191610fff565b820191906000526020600020905b815481529060010190602001808311610fe257829003601f168201915b5050505050815260200160038201548152602001600482015481526020016005820160009054906101000a900473ffffffffffffffffffffffffffffffffffffffff1673ffffffffffffffffffffffffffffffffffffffff1673ffffffffffffffffffffffffffffffffffffffff1681526020016006820160009054906101000a900473ffffffffffffffffffffffffffffffffffffffff1673ffffffffffffffffffffffffffffffffffffffff1673ffffffffffffffffffffffffffffffffffffffff1681526020016007820160009054906101000a900473ffffffffffffffffffffffffffffffffffffffff1673ffffffffffffffffffffffffffffffffffffffff1673ffffffffffffffffffffffffffffffffffffffff1681526020016008820154815260200160098201548152602001600a8201548152602001600b82015481525050905081816060018181525050806001600085815260200190815260200160002060008201518160000155602082015181600101908051906020019061118c929190611367565b5060408201518160020190805190602001906111a9929190611367565b50606082015181600301556080820151816004015560a08201518160050160006101000a81548173ffffffffffffffffffffffffffffffffffffffff021916908373ffffffffffffffffffffffffffffffffffffffff16021790555060c08201518160060160006101000a81548173ffffffffffffffffffffffffffffffffffffffff021916908373ffffffffffffffffffffffffffffffffffffffff16021790555060e08201518160070160006101000a81548173ffffffffffffffffffffffffffffffffffffffff021916908373ffffffffffffffffffffffffffffffffffffffff1602179055506101008201518160080155610120820151816009015561014082015181600a015561016082015181600b01559050507ffb0a20491cb8e6f0f7ac5b06b120dc512c8d130fc490894ede83f1b3792823e58382608001516040516112f7929190611a5c565b60405180910390a17f7379975efc8f27e526e8c986518fe504c4659ce93a1877e3a2db2c821f471c0a8333604051611330929190611ae9565b60405180910390a1505050565b60005481565b7f000000000000000000000000000000000000000000000000000000000000000081565b82805461137390611a2a565b90600052602060002090601f01602090048101928261139557600085556113dc565b82601f106113ae57805160ff19168380011785556113dc565b828001600101855582156113dc579182015b828111156113db5782518255916020019190600101906113c0565b5b5090506113e991906113ed565b5090565b5b808211156114065760008160009055506001016113ee565b5090565b6000604051905090565b600080fd5b600080fd5b600080fd5b600080fd5b6000601f19601f8301169050919050565b7f4e487b7100000000000000000000000000000000000000000000000000000000600052604160045260246000fd5b61147182611428565b810181811067ffffffffffffffff821117156114905761148f611439565b5b80604052505050565b60006114a361140a565b90506114af8282611468565b919050565b600067ffffffffffffffff8211156114cf576114ce611439565b5b6114d882611428565b9050602081019050919050565b82818337600083830152505050565b6000611507611502846114b4565b611499565b90508281526020810184848401111561152357611522611423565b5b61152e8482856114e5565b509392505050565b600082601f83011261154b5761154a61141e565b5b813561155b8482602086016114f4565b91505092915050565b6000806040838503121561157b5761157a611414565b5b600083013567ffffffffffffffff81111561159957611598611419565b5b6115a585828601611536565b925050602083013567ffffffffffffffff8111156115c6576115c5611419565b5b6115d285828601611536565b9150509250929050565b6000819050919050565b6115ef816115dc565b81146115fa57600080fd5b50565b60008135905061160c816115e6565b92915050565b60006020828403121561162857611627611414565b5b6000611636848285016115fd565b91505092915050565b611648816115dc565b82525050565b600081519050919050565b600082825260208201905092915050565b60005b8381101561168857808201518184015260208101905061166d565b83811115611697576000848401525b50505050565b60006116a88261164e565b6116b28185611659565b93506116c281856020860161166a565b6116cb81611428565b840191505092915050565b600073ffffffffffffffffffffffffffffffffffffffff82169050919050565b6000611701826116d6565b9050919050565b611711816116f6565b82525050565b60006101808201905061172d600083018f61163f565b818103602083015261173f818e61169d565b90508181036040830152611753818d61169d565b9050611762606083018c61163f565b61176f608083018b61163f565b61177c60a083018a611708565b61178960c0830189611708565b61179660e0830188611708565b6117a461010083018761163f565b6117b261012083018661163f565b6117c061014083018561163f565b6117ce61016083018461163f565b9d9c50505050505050505050505050565b600080604083850312156117f6576117f5611414565b5b6000611804858286016115fd565b9250506020611815858286016115fd565b9150509250929050565b6000602082019050611834600083018461163f565b92915050565b6000611845826116d6565b9050919050565b6118558161183a565b82525050565b6000602082019050611870600083018461184c565b92915050565b7f4e487b7100000000000000000000000000000000000000000000000000000000600052601160045260246000fd5b60006118b0826115dc565b91507fffffffffffffffffffffffffffffffffffffffffffffffffffffffffffffffff8214156118e3576118e2611876565b5b600182019050919050565b6000819050919050565b6000819050919050565b600061191d611918611913846118ee565b6118f8565b6115dc565b9050919050565b61192d81611902565b82525050565b600061018082019050611949600083018f61163f565b818103602083015261195b818e61169d565b9050818103604083015261196f818d61169d565b905061197e606083018c611924565b61198b608083018b611924565b61199860a083018a611708565b6119a560c0830189611708565b6119b260e0830188611708565b6119c061010083018761163f565b6119ce61012083018661163f565b6119dc610140830185611924565b6119ea610160830184611924565b9d9c50505050505050505050505050565b7f4e487b7100000000000000000000000000000000000000000000000000000000600052602260045260246000fd5b60006002820490506001821680611a4257607f821691505b60208210811415611a5657611a556119fb565b5b50919050565b6000604082019050611a71600083018561163f565b611a7e602083018461163f565b9392505050565b6000819050919050565b6000611aaa611aa5611aa084611a85565b6118f8565b6115dc565b9050919050565b611aba81611a8f565b82525050565b6000604082019050611ad5600083018561163f565b611ae26020830184611ab1565b9392505050565b6000604082019050611afe600083018561163f565b611b0b6020830184611708565b939250505056fea2646970667358221220b0a250bce79a8c833bbfac3f2580d2311fcd1c8957306d6d2e2e3465a3e0b5fd64736f6c63430008090033",
  "linkReferences": {},
  "deployedLinkReferences": {}
}