{
  "_format": "hh-sol-artifact-1",
  "contractName": "TaskManager",
  "sourceName": "backend/contracts/TaskManager.sol",
  "abi": [
    {
      "inputs": [],
      "stateMutability": "nonpayable",
      "type": "constructor"
    },
    {
      "anonymous": false,
      "inputs": [
        {
          "indexed": false,
          "internalType": "uint256",
          "name": "id",
          "type": "uint256"
        },
        {
          "indexed": false,
          "internalType": "address",
          "name": "assignedTo",
          "type": "address"
        }
      ],
      "name": "ChangeAssignation",
      "type": "event"
    },
    {
      "anonymous": false,
      "inputs": [
        {
          "indexed": false,
          "internalType": "uint256",
          "name": "id",
          "type": "uint256"
        },
        {
          "indexed": false,
          "internalType": "uint256",
          "name": "priority",
          "type": "uint256"
        }
      ],
      "name": "ChangePriority",
      "type": "event"
    },
    {
      "anonymous": false,
      "inputs": [
        {
          "indexed": false,
          "internalType": "uint256",
          "name": "id",
          "type": "uint256"
        },
        {
          "indexed": false,
          "internalType": "uint256",
          "name": "status",
          "type": "uint256"
        }
      ],
      "name": "ChangeStatus",
      "type": "event"
    },
    {
      "anonymous": false,
      "inputs": [
        {
          "indexed": false,
          "internalType": "uint256",
          "name": "id",
          "type": "uint256"
        },
        {
          "indexed": false,
          "internalType": "uint256",
          "name": "completedAt",
          "type": "uint256"
        }
      ],
      "name": "TaskCompleted",
      "type": "event"
    },
    {
      "anonymous": false,
      "inputs": [
        {
          "indexed": false,
          "internalType": "uint256",
          "name": "id",
          "type": "uint256"
        },
        {
          "indexed": false,
          "internalType": "string",
          "name": "title",
          "type": "string"
        },
        {
          "indexed": false,
          "internalType": "string",
          "name": "description",
          "type": "string"
        },
        {
          "indexed": false,
          "internalType": "uint256",
          "name": "status",
          "type": "uint256"
        },
        {
          "indexed": false,
          "internalType": "uint256",
          "name": "priority",
          "type": "uint256"
        },
        {
          "indexed": false,
          "internalType": "address",
          "name": "assignedTo",
          "type": "address"
        },
        {
          "indexed": false,
          "internalType": "address",
          "name": "createdBy",
          "type": "address"
        },
        {
          "indexed": false,
          "internalType": "address",
          "name": "updatedBy",
          "type": "address"
        },
        {
          "indexed": false,
          "internalType": "uint256",
          "name": "createdAt",
          "type": "uint256"
        },
        {
          "indexed": false,
          "internalType": "uint256",
          "name": "updatedAt",
          "type": "uint256"
        },
        {
          "indexed": false,
          "internalType": "uint256",
          "name": "dueBy",
          "type": "uint256"
        },
        {
          "indexed": false,
          "internalType": "uint256",
          "name": "completedAt",
          "type": "uint256"
        }
      ],
      "name": "TaskCreated",
      "type": "event"
    },
    {
      "anonymous": false,
      "inputs": [
        {
          "indexed": false,
          "internalType": "uint256",
          "name": "id",
          "type": "uint256"
        },
        {
          "indexed": false,
          "internalType": "address",
          "name": "updatedBy",
          "type": "address"
        }
      ],
      "name": "UpdatedBy",
      "type": "event"
    },
    {
      "inputs": [
        {
          "internalType": "uint256",
          "name": "_id",
          "type": "uint256"
        },
        {
          "internalType": "uint256",
          "name": "_priority",
          "type": "uint256"
        }
      ],
      "name": "changePriority",
      "outputs": [],
      "stateMutability": "nonpayable",
      "type": "function"
    },
    {
      "inputs": [
        {
          "internalType": "uint256",
          "name": "_id",
          "type": "uint256"
        },
        {
          "internalType": "uint256",
          "name": "_status",
          "type": "uint256"
        }
      ],
      "name": "changeStatus",
      "outputs": [],
      "stateMutability": "nonpayable",
      "type": "function"
    },
    {
      "inputs": [
        {
          "internalType": "string",
          "name": "_title",
          "type": "string"
        },
        {
          "internalType": "string",
          "name": "_description",
          "type": "string"
        }
      ],
      "name": "createTask",
      "outputs": [],
      "stateMutability": "nonpayable",
      "type": "function"
    },
    {
      "inputs": [],
      "name": "ownerAccount",
      "outputs": [
        {
          "internalType": "address payable",
          "name": "",
          "type": "address"
        }
      ],
      "stateMutability": "view",
      "type": "function"
    },
    {
      "inputs": [],
      "name": "taskCount",
      "outputs": [
        {
          "internalType": "uint256",
          "name": "",
          "type": "uint256"
        }
      ],
      "stateMutability": "view",
      "type": "function"
    },
    {
      "inputs": [
        {
          "internalType": "uint256",
          "name": "",
          "type": "uint256"
        }
      ],
      "name": "tasks",
      "outputs": [
        {
          "internalType": "uint256",
          "name": "id",
          "type": "uint256"
        },
        {
          "internalType": "string",
          "name": "title",
          "type": "string"
        },
        {
          "internalType": "string",
          "name": "description",
          "type": "string"
        },
        {
          "internalType": "uint256",
          "name": "status",
          "type": "uint256"
        },
        {
          "internalType": "uint256",
          "name": "priority",
          "type": "uint256"
        },
        {
          "internalType": "address",
          "name": "assignedTo",
          "type": "address"
        },
        {
          "internalType": "address",
          "name": "createdBy",
          "type": "address"
        },
        {
          "internalType": "address",
          "name": "updatedBy",
          "type": "address"
        },
        {
          "internalType": "uint256",
          "name": "createdAt",
          "type": "uint256"
        },
        {
          "internalType": "uint256",
          "name": "updatedAt",
          "type": "uint256"
        },
        {
          "internalType": "uint256",
          "name": "dueBy",
          "type": "uint256"
        },
        {
          "internalType": "uint256",
          "name": "completedAt",
          "type": "uint256"
        }
      ],
      "stateMutability": "view",
      "type": "function"
    },
    {
      "inputs": [
        {
          "internalType": "uint256",
          "name": "_id",
          "type": "uint256"
        }
      ],
      "name": "toggleCompleted",
      "outputs": [],
      "stateMutability": "nonpayable",
      "type": "function"
    }
  ],
  "bytecode": "0x60a06040526000805534801561001457600080fd5b503373ffffffffffffffffffffffffffffffffffffffff1660808173ffffffffffffffffffffffffffffffffffffffff1681525050608051611b81610064600039600061137e0152611b816000f3fe608060405234801561001057600080fd5b506004361061007d5760003560e01c806391203cc31161005b57806391203cc3146100f5578063ac497e9414610111578063b6cb58a51461012d578063ea47cb241461014b5761007d565b8063292a458514610082578063455f50241461009e5780638d977672146100ba575b600080fd5b61009c6004803603810190610097919061159d565b610169565b005b6100b860048036038101906100b3919061164b565b6103df565b005b6100d460048036038101906100cf919061164b565b61089e565b6040516100ec9c9b9a99989796959493929190611750565b60405180910390f35b61010f600480360381019061010a9190611818565b610a6e565b005b61012b60048036038101906101269190611818565b610ef2565b005b610135611376565b6040516101429190611858565b60405180910390f35b61015361137c565b6040516101609190611894565b60405180910390f35b60008081548092919061017b906118de565b9190505550604051806101800160405280600054815260200183815260200182815260200160008152602001600081526020013373ffffffffffffffffffffffffffffffffffffffff1681526020013373ffffffffffffffffffffffffffffffffffffffff1681526020013373ffffffffffffffffffffffffffffffffffffffff16815260200142815260200142815260200160008152602001600081525060016000805481526020019081526020016000206000820151816000015560208201518160010190805190602001906102549291906113a0565b5060408201518160020190805190602001906102719291906113a0565b50606082015181600301556080820151816004015560a08201518160050160006101000a81548173ffffffffffffffffffffffffffffffffffffffff021916908373ffffffffffffffffffffffffffffffffffffffff16021790555060c08201518160060160006101000a81548173ffffffffffffffffffffffffffffffffffffffff021916908373ffffffffffffffffffffffffffffffffffffffff16021790555060e08201518160070160006101000a81548173ffffffffffffffffffffffffffffffffffffffff021916908373ffffffffffffffffffffffffffffffffffffffff1602179055506101008201518160080155610120820151816009015561014082015181600a015561016082015181600b01559050507f966369fa3967a9adee1d13e1dfd82bfa577648627c3a450da8b4653b0425531e600054838360008033333342426000806040516103d39c9b9a9998979695949392919061196c565b60405180910390a15050565b600060016000838152602001908152602001600020604051806101800160405290816000820154815260200160018201805461041a90611a63565b80601f016020809104026020016040519081016040528092919081815260200182805461044690611a63565b80156104935780601f1061046857610100808354040283529160200191610493565b820191906000526020600020905b81548152906001019060200180831161047657829003601f168201915b505050505081526020016002820180546104ac90611a63565b80601f01602080910402602001604051908101604052809291908181526020018280546104d890611a63565b80156105255780601f106104fa57610100808354040283529160200191610525565b820191906000526020600020905b81548152906001019060200180831161050857829003601f168201915b5050505050815260200160038201548152602001600482015481526020016005820160009054906101000a900473ffffffffffffffffffffffffffffffffffffffff1673ffffffffffffffffffffffffffffffffffffffff1673ffffffffffffffffffffffffffffffffffffffff1681526020016006820160009054906101000a900473ffffffffffffffffffffffffffffffffffffffff1673ffffffffffffffffffffffffffffffffffffffff1673ffffffffffffffffffffffffffffffffffffffff1681526020016007820160009054906101000a900473ffffffffffffffffffffffffffffffffffffffff1673ffffffffffffffffffffffffffffffffffffffff1673ffffffffffffffffffffffffffffffffffffffff1681526020016008820154815260200160098201548152602001600a8201548152602001600b820154815250509050428161016001818152505080600160008481526020019081526020016000206000820151816000015560208201518160010190805190602001906106b39291906113a0565b5060408201518160020190805190602001906106d09291906113a0565b50606082015181600301556080820151816004015560a08201518160050160006101000a81548173ffffffffffffffffffffffffffffffffffffffff021916908373ffffffffffffffffffffffffffffffffffffffff16021790555060c08201518160060160006101000a81548173ffffffffffffffffffffffffffffffffffffffff021916908373ffffffffffffffffffffffffffffffffffffffff16021790555060e08201518160070160006101000a81548173ffffffffffffffffffffffffffffffffffffffff021916908373ffffffffffffffffffffffffffffffffffffffff1602179055506101008201518160080155610120820151816009015561014082015181600a015561016082015181600b01559050507f6910eb6f790b6fbe2c5b9a560007e00453970a04e77b391ab40cb743c50646c182600960405161081b929190611ad0565b60405180910390a17ff9c405f91e34dcd1dc136cf6992ada4a8c24a2803e0fab7546364c64dac7ba2b82826101600151604051610859929190611af9565b60405180910390a17f7379975efc8f27e526e8c986518fe504c4659ce93a1877e3a2db2c821f471c0a8233604051610892929190611b22565b60405180910390a15050565b60016020528060005260406000206000915090508060000154908060010180546108c790611a63565b80601f01602080910402602001604051908101604052809291908181526020018280546108f390611a63565b80156109405780601f1061091557610100808354040283529160200191610940565b820191906000526020600020905b81548152906001019060200180831161092357829003601f168201915b50505050509080600201805461095590611a63565b80601f016020809104026020016040519081016040528092919081815260200182805461098190611a63565b80156109ce5780601f106109a3576101008083540402835291602001916109ce565b820191906000526020600020905b8154815290600101906020018083116109b157829003601f168201915b5050505050908060030154908060040154908060050160009054906101000a900473ffffffffffffffffffffffffffffffffffffffff16908060060160009054906101000a900473ffffffffffffffffffffffffffffffffffffffff16908060070160009054906101000a900473ffffffffffffffffffffffffffffffffffffffff169080600801549080600901549080600a01549080600b015490508c565b6000600160008481526020019081526020016000206040518061018001604052908160008201548152602001600182018054610aa990611a63565b80601f0160208091040260200160405190810160405280929190818152602001828054610ad590611a63565b8015610b225780601f10610af757610100808354040283529160200191610b22565b820191906000526020600020905b815481529060010190602001808311610b0557829003601f168201915b50505050508152602001600282018054610b3b90611a63565b80601f0160208091040260200160405190810160405280929190818152602001828054610b6790611a63565b8015610bb45780601f10610b8957610100808354040283529160200191610bb4565b820191906000526020600020905b815481529060010190602001808311610b9757829003601f168201915b5050505050815260200160038201548152602001600482015481526020016005820160009054906101000a900473ffffffffffffffffffffffffffffffffffffffff1673ffffffffffffffffffffffffffffffffffffffff1673ffffffffffffffffffffffffffffffffffffffff1681526020016006820160009054906101000a900473ffffffffffffffffffffffffffffffffffffffff1673ffffffffffffffffffffffffffffffffffffffff1673ffffffffffffffffffffffffffffffffffffffff1681526020016007820160009054906101000a900473ffffffffffffffffffffffffffffffffffffffff1673ffffffffffffffffffffffffffffffffffffffff1673ffffffffffffffffffffffffffffffffffffffff1681526020016008820154815260200160098201548152602001600a8201548152602001600b820154815250509050818160600181815250508060016000858152602001908152602001600020600082015181600001556020820151816001019080519060200190610d419291906113a0565b506040820151816002019080519060200190610d5e9291906113a0565b50606082015181600301556080820151816004015560a08201518160050160006101000a81548173ffffffffffffffffffffffffffffffffffffffff021916908373ffffffffffffffffffffffffffffffffffffffff16021790555060c08201518160060160006101000a81548173ffffffffffffffffffffffffffffffffffffffff021916908373ffffffffffffffffffffffffffffffffffffffff16021790555060e08201518160070160006101000a81548173ffffffffffffffffffffffffffffffffffffffff021916908373ffffffffffffffffffffffffffffffffffffffff1602179055506101008201518160080155610120820151816009015561014082015181600a015561016082015181600b01559050507f6910eb6f790b6fbe2c5b9a560007e00453970a04e77b391ab40cb743c50646c1838260600151604051610eac929190611af9565b60405180910390a17f7379975efc8f27e526e8c986518fe504c4659ce93a1877e3a2db2c821f471c0a8333604051610ee5929190611b22565b60405180910390a1505050565b6000600160008481526020019081526020016000206040518061018001604052908160008201548152602001600182018054610f2d90611a63565b80601f0160208091040260200160405190810160405280929190818152602001828054610f5990611a63565b8015610fa65780601f10610f7b57610100808354040283529160200191610fa6565b820191906000526020600020905b815481529060010190602001808311610f8957829003601f168201915b50505050508152602001600282018054610fbf90611a63565b80601f0160208091040260200160405190810160405280929190818152602001828054610feb90611a63565b80156110385780601f1061100d57610100808354040283529160200191611038565b820191906000526020600020905b81548152906001019060200180831161101b57829003601f168201915b5050505050815260200160038201548152602001600482015481526020016005820160009054906101000a900473ffffffffffffffffffffffffffffffffffffffff1673ffffffffffffffffffffffffffffffffffffffff1673ffffffffffffffffffffffffffffffffffffffff1681526020016006820160009054906101000a900473ffffffffffffffffffffffffffffffffffffffff1673ffffffffffffffffffffffffffffffffffffffff1673ffffffffffffffffffffffffffffffffffffffff1681526020016007820160009054906101000a900473ffffffffffffffffffffffffffffffffffffffff1673ffffffffffffffffffffffffffffffffffffffff1673ffffffffffffffffffffffffffffffffffffffff1681526020016008820154815260200160098201548152602001600a8201548152602001600b8201548152505090508181608001818152505080600160008581526020019081526020016000206000820151816000015560208201518160010190805190602001906111c59291906113a0565b5060408201518160020190805190602001906111e29291906113a0565b50606082015181600301556080820151816004015560a08201518160050160006101000a81548173ffffffffffffffffffffffffffffffffffffffff021916908373ffffffffffffffffffffffffffffffffffffffff16021790555060c08201518160060160006101000a81548173ffffffffffffffffffffffffffffffffffffffff021916908373ffffffffffffffffffffffffffffffffffffffff16021790555060e08201518160070160006101000a81548173ffffffffffffffffffffffffffffffffffffffff021916908373ffffffffffffffffffffffffffffffffffffffff1602179055506101008201518160080155610120820151816009015561014082015181600a015561016082015181600b01559050507ffb0a20491cb8e6f0f7ac5b06b120dc512c8d130fc490894ede83f1b3792823e5838260800151604051611330929190611af9565b60405180910390a17f7379975efc8f27e526e8c986518fe504c4659ce93a1877e3a2db2c821f471c0a8333604051611369929190611b22565b60405180910390a1505050565b60005481565b7f000000000000000000000000000000000000000000000000000000000000000081565b8280546113ac90611a63565b90600052602060002090601f0160209004810192826113ce5760008555611415565b82601f106113e757805160ff1916838001178555611415565b82800160010185558215611415579182015b828111156114145782518255916020019190600101906113f9565b5b5090506114229190611426565b5090565b5b8082111561143f576000816000905550600101611427565b5090565b6000604051905090565b600080fd5b600080fd5b600080fd5b600080fd5b6000601f19601f8301169050919050565b7f4e487b7100000000000000000000000000000000000000000000000000000000600052604160045260246000fd5b6114aa82611461565b810181811067ffffffffffffffff821117156114c9576114c8611472565b5b80604052505050565b60006114dc611443565b90506114e882826114a1565b919050565b600067ffffffffffffffff82111561150857611507611472565b5b61151182611461565b9050602081019050919050565b82818337600083830152505050565b600061154061153b846114ed565b6114d2565b90508281526020810184848401111561155c5761155b61145c565b5b61156784828561151e565b509392505050565b600082601f83011261158457611583611457565b5b813561159484826020860161152d565b91505092915050565b600080604083850312156115b4576115b361144d565b5b600083013567ffffffffffffffff8111156115d2576115d1611452565b5b6115de8582860161156f565b925050602083013567ffffffffffffffff8111156115ff576115fe611452565b5b61160b8582860161156f565b9150509250929050565b6000819050919050565b61162881611615565b811461163357600080fd5b50565b6000813590506116458161161f565b92915050565b6000602082840312156116615761166061144d565b5b600061166f84828501611636565b91505092915050565b61168181611615565b82525050565b600081519050919050565b600082825260208201905092915050565b60005b838110156116c15780820151818401526020810190506116a6565b838111156116d0576000848401525b50505050565b60006116e182611687565b6116eb8185611692565b93506116fb8185602086016116a3565b61170481611461565b840191505092915050565b600073ffffffffffffffffffffffffffffffffffffffff82169050919050565b600061173a8261170f565b9050919050565b61174a8161172f565b82525050565b600061018082019050611766600083018f611678565b8181036020830152611778818e6116d6565b9050818103604083015261178c818d6116d6565b905061179b606083018c611678565b6117a8608083018b611678565b6117b560a083018a611741565b6117c260c0830189611741565b6117cf60e0830188611741565b6117dd610100830187611678565b6117eb610120830186611678565b6117f9610140830185611678565b611807610160830184611678565b9d9c50505050505050505050505050565b6000806040838503121561182f5761182e61144d565b5b600061183d85828601611636565b925050602061184e85828601611636565b9150509250929050565b600060208201905061186d6000830184611678565b92915050565b600061187e8261170f565b9050919050565b61188e81611873565b82525050565b60006020820190506118a96000830184611885565b92915050565b7f4e487b7100000000000000000000000000000000000000000000000000000000600052601160045260246000fd5b60006118e982611615565b91507fffffffffffffffffffffffffffffffffffffffffffffffffffffffffffffffff82141561191c5761191b6118af565b5b600182019050919050565b6000819050919050565b6000819050919050565b600061195661195161194c84611927565b611931565b611615565b9050919050565b6119668161193b565b82525050565b600061018082019050611982600083018f611678565b8181036020830152611994818e6116d6565b905081810360408301526119a8818d6116d6565b90506119b7606083018c61195d565b6119c4608083018b61195d565b6119d160a083018a611741565b6119de60c0830189611741565b6119eb60e0830188611741565b6119f9610100830187611678565b611a07610120830186611678565b611a1561014083018561195d565b611a2361016083018461195d565b9d9c50505050505050505050505050565b7f4e487b7100000000000000000000000000000000000000000000000000000000600052602260045260246000fd5b60006002820490506001821680611a7b57607f821691505b60208210811415611a8f57611a8e611a34565b5b50919050565b6000819050919050565b6000611aba611ab5611ab084611a95565b611931565b611615565b9050919050565b611aca81611a9f565b82525050565b6000604082019050611ae56000830185611678565b611af26020830184611ac1565b9392505050565b6000604082019050611b0e6000830185611678565b611b1b6020830184611678565b9392505050565b6000604082019050611b376000830185611678565b611b446020830184611741565b939250505056fea2646970667358221220593eb4c1e28c0a6303606f9dc49a55e60e5ff9b196447220499282bf3acc830864736f6c63430008090033",
  "linkReferences": {},
  "deployedLinkReferences": {}
}